S0100000436F6E7454656D702E73726563EA
S11300000C9473000C949B000C949B000C949B0028
S11300100C949B000C949B000C949B000C949B00F0
S11300200C949B000C949B000C949B000C949B00E0
S11300300C949B000C943D130C949B000C949B001B
S11300400C948D0B0C949B000C94DD080C940F09FC
S11300500C949B000C949B000C949B000C949B00B0
S11300600C949B000C949B0000000008000201000B
S1130070000304070000000000000000010204085F
S113008010204080010204081020010204081020FE
S1130090040404040404040402020202020203032A
S11300A003030303000000002300260029000000CE
S11300B00000250028002B00000000002400270079
S11300C02A00005EBCE2613FDD83C29C7E20A3FD6A
S11300D01F41009D23BE46DB65F88C11AF32CA5721
S11300E0E974D6013F0911241FBECFEFD8E0DEBF6B
S11300F0CDBF12E0A0E0B1E0E8E7F7E202C005906E
S11301000D92A637B107D9F723E0A6E7B2E001C004
S11301101D92A337B207E1F710E0C3E7D0E004C0B3
S11301202197FE010E94B413C137D107C9F70E9479
S11301306D090C94BA130C94000080910301815052
S113014019F08093030108958AE08093030180915C
S11301507602882349F0815080937602811104C08D
S113016060E08DE00E940C0D80910201815019F035
S113017080930201089584E68093020181E08093D4
S1130180810280917D0290917E02892B41F061E091
S11301908DE00E940C0D80917D028093760208957B
S11301A0EF92FF920F931F93CF93DF93EC018C0197
S11301B0085F1F4F7E018881803130F463E171E074
S11301C088EC92E00E94BB09219640E150E0F701DF
S11301D0608188EC92E00E94300AC017D10751F781
S11301E0DF91CF911F910F91FF90EF90089540E020
S11301F060E086E892E00E94511065E171E086E8D3
S113020092E00C94BB09482F60E086E892E00E94DB
S1130210511066E271E086E892E00C94BB09EF921B
S1130220FF921F93CF93DF93EC017B01142FCE1524
S1130230DF0574F4412F6C2F86E892E00E94511080
S113024065E371E086E892E00E94BB092196EFCF56
S1130250DF91CF911F91FF90EF90089580917702E5
S11302609091780201969093780280937702089592
S11302708F929F92AF92BF92CF92DF92EF92FF92B2
S11302806EE972E086EA92E00E948F0F6B017C01B6
S113029020E030E0A9010E94C70587FD09C0C09293
S11302A07902D0927A02E0927B02F0927C0208C03A
S11302B01092790210927A0210927B0210927C02C0
S11302C0C0907902D0907A02E0907B02F0907C0298
S11302D080900C0190900D01A0900E01B0900F0140
S11302E0A5019401C701B6010E945A0520E030E03F
S11302F040E85FE30E94260718168CF420E030E003
S113030040E85FE3C501B4010E945B0560930C0102
S113031070930D0180930E0190930F0108C0C09259
S11303200C01D0920D01E0920E01F0920F01609148
S11303300C0170910D0180910E0190910F01FF90BD
S1130340EF90DF90CF90BF90AF909F908F900895E3
S113035080E00E948A0C9093850280938402893EF7
S113036023E0920704F5823391058CF08A3F9105CE
S11303708CF0823C21E0920784F08A3822E09207D4
S11303807CF0823593407CF484E090E0089580E032
S113039090E0089581E090E0089582E090E008956F
S11303A083E090E0089585E090E00895CF92EF9285
S11303B00F9363E08AEB92E00E947B126AEB72E097
S11303C086EA92E00E94590D87E0C82E96E0E92E55
S11303D005E024E049E068E086E892E00E9411111B
S11303E00F91EF90CF9008958091820290918302B3
S11303F041E060E081309105B9F082309105D9F097
S1130400892B01F586E892E00E94511067E371E0C0
S113041086E892E00E94BB0960E086E892E00E94D0
S113042059116FE371E014C086E892E00E94511004
S113043068E471E00DC086E892E00E94511069E51D
S113044071E006C086E892E00E94511066E271E015
S113045086E892E00C94BB0910927802109277021D
S113046080E090E00E94030181E090E00E9403019B
S113047040E060E086E892E00E9451106AE671E094
S113048086E892E00E94BB0941E060E086E892E0E1
S11304900E94511069E771E086E892E00E94BB096E
S11304A00E94A8012091770230917802213A3540C8
S11304B00CF442C0109278021092770282309105B7
S11304C071F084309105B9F00197C9F480917D02EF
S11304D090917E028436910594F4019607C0809130
S11304E07D0290917E02009751F0019790937E02D5
S11304F080937D0204C00E94F7000C94F40181E013
S113050090E00E94030141E060E086E892E00E94EE
S1130510511069E771E086E892E00E94BB0960919E
S11305207D0270917E024AE050E086E892E00E94EB
S1130530850A6DE771E0B0CF0E942E01B1CF8F9292
S11305409F92AF92BF92CF92DF92EF92FF9210925E
S113055078021092770280E090E00E94030181E02B
S113056090E00E94030140E060E086E892E00E948F
S113057051106FE771E086E892E00E94BB0941E008
S113058060E086E892E00E94511060E971E086E83C
S113059092E00E94BB0961EA71E086E892E00E9461
S11305A0BB090E94A801209177023091780221347E
S11305B03B400CF489C010927802109277020497A1
S11305C061F40E94F700FF90EF90DF90CF90BF900E
S11305D0AF909F908F900C94F40186EA92E00E9471
S11305E0160F0E9438014B015C0140E050E060E1CD
S11305F070E087E090E00E940F0141E050E060E18C
S113060070E085E090E00E940F0140E067E086E83A
S113061092E00E94511022E030E0B501A40186E886
S113062092E00E94790B60E086E892E00E94591102
S113063062EB71E086E892E00E94BB0941E065E06C
S113064086E892E00E9451106091100170911101AE
S11306504AE050E086E892E00E94850A60E086E87D
S113066092E00E94591162EB71E086E892E00E94E8
S1130670BB0941E06CE086E892E00E945110609171
S1130680100170911101072E000C880B990B0E9428
S113069076066B017C01A50194010E945A05A7010D
S11306A096010E94CC0520E030E048EC52E40E9420
S11306B02B070E943E064AE050E086E892E00E9442
S11306C0850A6DE771E069CF0E942E016ACF20E0B0
S11306D042E060E186E892E00E946C1040E060E055
S11306E086E892E00E94511064EB71E086E892E0A3
S11306F00E94BB098EE190E0909311018093100158
S113070026E040E855E260E070E088EC92E00E9468
S1130710740886EA92E00E94460E86EA92E00E94FD
S1130720630D90E09093800280937F0264EC71E00B
S113073088EC92E00E94C80964EE71E088EC92E0D3
S11307400E94BB0960917F02709180024AE050E0F0
S113075088EC92E00E94370A67EF71E088EC92E03F
S11307600E94C80980917F0290918002892B09F12F
S113077040E06EE972E086EA92E00E94750D811114
S113078006C062E072E088EC92E00E94C8096BE166
S113079072E088EC92E00E94BB098EE992E00E942C
S11307A0D00088EC92E00E94C40988EC92E00E9498
S11307B0C40961E08DE00E94D00C80E18093810047
S11307C01092800081E08093700320E43FE1309335
S11307D0720320937103309387002093860091E184
S11307E0909381002DE930E030936F0320936E03E2
S11307F080936F0044E051E060E086E892E00E945C
S113080031110C949F02109278021092770280E0CA
S113081090E00E94030181E090E00E94030140E027
S113082060E086E892E00E9451106DE272E086E892
S113083092E00E94BB0960E086E892E00E945911B0
S113084065E372E086E892E00E94BB090E94A80179
S11308502091770230917802213A35400CF44DC052
S113086010927802109277028230910591F08430D0
S11308709105F9F0019709F580911001909111010A
S1130880863E23E0920714F401960EC087EE93E0AF
S11308900BC080911001909111018230910514F0E8
S11308A0019702C089E19CEF90931101809310019C
S11308B004C00E94F7000C94F40181E090E00E94CF
S11308C0030141E060E086E892E00E94511060E09C
S11308D086E892E00E9459116EE372E086E892E0A5
S11308E00E94BB0960911001709111014AE050E02F
S11308F086E892E00E94850AA9CF0E942E01A6CF25
S11309008F929F92AF92BF92CF92DF92EF92FF921B
S11309100E94A801209100013091010182179307E0
S113092009F447C00E94A80190930101809300013B
S11309300E94A8018230910571F18430910519F06B
S11309400197B9F514C0809182029091830281309D
S1130950910541F08230910541F0892B41F40E94C8
S1130960030405C00E942C0202C00E949F028091D1
S1130970820290918302823091052CF010928302BE
S11309801092820205C001969093830280938202A2
S11309900E94F4010EC0209182023091830212164B
S11309A0130694F721503109309383022093820275
S11309B0EFCF80917F0290918002892B09F471C05E
S11309C080918102882309F46CC01092810286EA26
S11309D092E00E94160F0E9438016B017C010E9474
S11309E03E062091100130911101621773070CF03B
S11309F04CC022E030E0B701A60188EC92E00E94EE
S1130A007B0B60911001709111014AE050E088EC79
S1130A1092E00E948C0A6091100170911101072EDE
S1130A20000C880B990B0E9476064B015C01A70110
S1130A3096010E945A05A50194010E94CC0520E06C
S1130A4030E048EC52E40E942B070E943E0670936B
S1130A507E0260937D024AE050E088EC92E00E94BE
S1130A608C0A88EC92E00E94C40988EC92E00E940F
S1130A70C40988EC92E0FF90EF90DF90CF90BF9094
S1130A80AF909F908F900C94C40960E08DE0FF902C
S1130A90EF90DF90CF90BF90AF909F908F900C9489
S1130AA00C0DFF90EF90DF90CF90BF90AF909F9090
S1130AB08F9008955058BB27AA270E9472050C9462
S1130AC0EC060E94DE0638F00E94E50620F039F4B8
S1130AD09F3F19F426F40C94DB060EF4E095E7FB33
S1130AE00C94D506E92F0E94FD0658F3BA17620745
S1130AF073078407950720F079F4A6F50C941F0773
S1130B000EF4E0950B2EBA2FA02D0B01B901900124
S1130B100C01CA01A0011124FF27591B99F0593F68
S1130B2050F4503E68F11A16F040A22F232F342FB0
S1130B304427585FF3CF469537952795A795F040FE
S1130B405395C9F77EF41F16BA0B620B730B840B13
S1130B50BAF09150A1F0FF0FBB1F661F771F881FCB
S1130B60C2F70EC0BA0F621F731F841F48F4879523
S1130B7077956795B795F7959E3F08F0B0CF939515
S1130B80880F08F09927EE0F9795879508950E948E
S1130B90B10608F481E008950E94E0050C94EC0687
S1130BA00E94E50658F00E94DE0640F029F45F3FFB
S1130BB029F00C94D50651110C9420070C94DB06F3
S1130BC00E94FD0668F39923B1F3552391F3951B15
S1130BD0550BBB27AA2762177307840738F09F5F5A
S1130BE05F4F220F331F441FAA1FA9F335D00E2EC7
S1130BF03AF0E0E832D091505040E695001CCAF734
S1130C002BD0FE2F29D0660F771F881FBB1F2617F6
S1130C1037074807AB07B0E809F0BB0B802DBF01CD
S1130C20FF2793585F4F3AF09E3F510578F00C949C
S1130C30D5060C9420075F3FE4F3983ED4F38695E1
S1130C4077956795B795F7959F5FC9F7880F911DBD
S1130C509695879597F90895E1E0660F771F881FA9
S1130C60BB1F621773078407BA0720F0621B730B5C
S1130C70840BBA0BEE1F88F7E09508950E94450691
S1130C806894B1110C94200708950E94050788F018
S1130C909F5798F0B92F9927B751B0F0E1F0660F3C
S1130CA0771F881F991F1AF0BA95C9F714C0B1307D
S1130CB091F00E941F07B1E008950C941F07672F5D
S1130CC0782F8827B85F39F0B93FCCF386957795AC
S1130CD06795B395D9F73EF4909580957095619595
S1130CE07F4F8F4F9F4F0895E89409C097FB3EF4C0
S1130CF090958095709561957F4F8F4F9F4F992365
S1130D00A9F0F92F96E9BB279395F69587957795E2
S1130D106795B795F111F8CFFAF4BB0F11F460FFA2
S1130D201BC06F5F7F4F8F4F9F4F16C0882311F0FA
S1130D3096E911C0772321F09EE8872F762F05C00E
S1130D40662371F096E8862F70E060E02AF09A95A9
S1130D50660F771F881FDAF7880F9695879597F99E
S1130D600895990F0008550FAA0BE0E8FEEF161638
S1130D701706E807F907C0F012161306E407F5078B
S1130D8098F0621B730B840B950B39F40A2661F0FF
S1130D90232B242B252B21F408950A2609F4A140A2
S1130DA0A6958FEF811D811D089597F99F6780E8AF
S1130DB070E060E008959FEF80EC089500240A94A9
S1130DC01616170618060906089500240A94121622
S1130DD01306140605060895092E0394000C11F455
S1130DE0882352F0BB0F40F4BF2B11F460FF04C002
S1130DF06F5F7F4F8F4F9F4F089557FD9058440F5B
S1130E00551F59F05F3F71F04795880F97FB991F65
S1130E1061F09F3F79F08795089512161306140622
S1130E20551FF2CF4695F1DF08C0161617061806AF
S1130E30991FF1CF86957105610508940895E8948A
S1130E40BB2766277727CB0197F908950E94B1063F
S1130E5008F48FEF08950E943E070C94EC060E945C
S1130E60DE0638F00E94E50620F0952311F00C947C
S1130E70D5060C94DB0611240C9420070E94FD0671
S1130E8070F3959FC1F3950F50E0551F629FF001D9
S1130E90729FBB27F00DB11D639FAA27F00DB11DF2
S1130EA0AA1F649F6627B00DA11D661F829F22277B
S1130EB0B00DA11D621F739FB00DA11D621F839F02
S1130EC0A00D611D221F749F3327A00D611D231FD8
S1130ED0849F600D211D822F762F6A2F11249F5726
S1130EE050409AF0F1F088234AF0EE0FFF1FBB1F29
S1130EF0661F771F881F91505040A9F79E3F5105E8
S1130F0080F00C94D5060C9420075F3FE4F3983EE0
S1130F10D4F3869577956795B795F795E7959F5F91
S1130F20C1F7FE2B880F911D9695879597F9089523
S1130F30FC01918D228D892F90E0805C9F4F821B54
S1130F4091098F7399270895FC01918D828D9817CB
S1130F5031F0828DE80FF11D858D90E008958FEFBB
S1130F609FEF0895FC01918D828D981761F0828D19
S1130F70DF01A80FB11D5D968C91928D9F5F9F73C9
S1130F80928F90E008958FEF9FEF0895FC01538DA9
S1130F90448D252F30E0842F90E0821B930B54174F
S1130FA010F0CF9608950197089585E399E0892B71
S1130FB049F080E090E0892B29F00E9435098111E5
S1130FC00C9400000895FC01848DDF01A80FB11D6D
S1130FD0A35ABF4F2C91848D90E001968F7399276B
S1130FE0848FA689B7892C93A089B1898C91837049
S1130FF080648C93938D848D981306C00288F38942
S1131000E02D80818F7D80830895EF92FF920F936E
S11310101F93CF93DF93EC0181E0888F9B8D8C8DA0
S1131020981305C0E889F989808185FD26C0F62ECC
S11310300B8D10E00F5F1F4F0F731127E02E8C8D67
S1131040E8120CC00FB607FCFACFE889F989808151
S113105085FFF5CFCE010E94E307F1CF8B8DFE0112
S1131060E80FF11DE35AFF4FF0829FB7F8940B8FFE
S1131070EA89FB89808180620AC09FB7F894EE896F
S1131080FF896083E889F989808183708064808323
S11310909FBF81E090E0DF91CF911F910F91FF906E
S11310A0EF900895CF93DF93EC01888D8823C9F0E6
S11310B0EA89FB89808185FD05C0A889B9898C915D
S11310C086FD0FC00FB607FCF5CF808185FFF2CFF8
S11310D0A889B9898C9185FFEDCFCE010E94E307E1
S11310E0E7CFDF91CF910895CF92DF92EF92FF92F5
S11310F01F93CF93DF93EC016A017B01122FE889E0
S1131100F98982E080834115514E61057105B1F082
S113111060E079E08DE390E0A70196010E947E13E0
S1131120DA01C9010197A109B109B695A795979567
S113113087959C01211580E13807A8F0E889F98991
S1131140108260E874E88EE190E0A70196010E94A5
S11311507E13DA01C9010197A109B109B695A795D2
S1131160979587959C01EC85FD853083EE85FF85F9
S11311702083188EEC89FD891083EA89FB8980819C
S113118080618083EA89FB89808188608083EA8921
S1131190FB89808180688083EA89FB8980818F7DD7
S11311A08083DF91CF911F91FF90EF90DF90CF90DC
S11311B0089580E090E0089508951F920F920FB66D
S11311C00F9211242F938F939F93EF93FF93E091AA
S11311D0D802F091D9028081E091DE02F091DF0221
S11311E082FD12C090818091E1028F5F8F73209104
S11311F0E202821751F0E091E102F0E0E853FD4F82
S1131200958F8093E10201C08081FF91EF919F91BE
S11312108F912F910F900FBE0F901F9018951F92D2
S11312200F920FB60F9211242F933F934F935F9316
S11312306F937F938F939F93AF93BF93EF93FF939A
S113124088EC92E00E94E307FF91EF91BF91AF9188
S11312509F918F917F916F915F914F913F912F91CA
S11312600F900FBE0F901F90189588EC92E00E948B
S1131270980721E0892B09F420E0822F0895E8ECF7
S1131280F2E01382128288EE93E0A0E0B0E084835F
S11312909583A683B78386E492E09183808385EC6B
S11312A090E09587848784EC90E09787868780EC2C
S11312B090E0918B808B81EC90E0938B828B82EC1D
S11312C090E0958B848B86EC90E0978B868B118EC7
S11312D0128E138E148E089508950E944F0C0E944E
S11312E06C090E946703C5EDD7E00E948004209733
S11312F0E1F30E94D507F9CFCF92DF92EF92FF92EC
S11313000F931F93CF93DF936C017A018B01C0E09D
S1131310D0E0CE15DF0581F0D8016D918D01D601A5
S1131320ED91FC910190F081E02DC6010995892B86
S113133011F02196EECF7E01C701DF91CF911F916D
S11313400F91FF90EF90DF90CF9008956115710594
S113135079F0FB0101900020E9F73197AF01461BBA
S1131360570BDC01ED91FC910280F381E02D09948F
S113137080E090E008950C94A609DC01ED91FC91C5
S11313800190F081E02D099464E572E00C94A609C3
S11313900F931F93CF93DF93EC010E94A6098C0156
S11313A0CE010E94C409800F911FDF91CF911F913C
S11313B00F9108958F929F92AF92BF92EF92FF92F6
S11313C00F931F93CF93DF93CDB7DEB7A1970FB6DB
S11313D0F894DEBF0FBECDBF7C01FA01CB0119A288
S11313E0223008F42AE08E010F5D1F4F822E912CCB
S11313F0A12CB12CBF01A50194010E947E13F90117
S1131400CA01015011096A3010F4605D01C0695CC1
S1131410D8016C93232B242B252B61F7B801C7012A
S11314200E94A609A1960FB6F894DEBF0FBECDBFE9
S1131430DF91CF911F910F91FF90EF90BF90AF90EC
S11314409F908F9008952115310541F4DC01ED91B1
S1131450FC910190F081E02D642F09940C94DA0939
S11314609A01462F50E060E070E00C94230A9A0140
S1131470AB0160E070E00C94230ACF92DF92EF920C
S1131480FF920F931F93CF93DF932115310581F4BE
S1131490DC01ED91FC910190F081E02D642FDF914E
S11314A0CF911F910F91FF90EF90DF90CF9009940F
S11314B02A30310501F577FF1DC06A017B01EC017B
S11314C06DE20E94BD098C0144275527BA014C19CD
S11314D05D096E097F092AE0CE010E94DA09800FB6
S11314E0911FDF91CF911F910F91FF90EF90DF90AB
S11314F0CF9008952AE0DF91CF911F910F91FF9033
S1131500EF90DF90CF900C94DA099A01AB01770F3A
S1131510660B770B0C943D0A0F931F93CF93DF93C5
S1131520EC010E94850A8C01CE010E94C409800F3F
S1131530911FDF91CF911F910F9108957F928F9208
S11315409F92AF92BF92CF92DF92EF92FF920F934E
S11315501F93CF93DF938C016A017B01722E9A0152
S1131560AB01C701B6010E946513882319F067E532
S113157072E027C046015701E894B7F82FEF3FEF18
S11315804FE75FE7C501B4010E94651381110DC0E7
S11315902FEF3FEF4FE75FE7C501B4010E94C70596
S11315A018161CF46BE572E00CC02FEF3FEF4FE709
S11315B05FE4C701B6010E942607181694F46FE58C
S11315C072E0C801DF91CF911F910F91FF90EF90CE
S11315D0DF90CF90BF90AF909F908F907F900C94AE
S11315E0A6092FEF3FEF4FE75FECC701B6010E945A
S11315F0C70587FDE4CF20E030E0A901C701B601AB
S11316000E94C70587FF0AC06DE2C8010E94BD0998
S1131610EC01F7FAF094F7F8F09402C0C0E0D0E0DF
S1131620B12C60E070E080E09FE37B1441F020E0A7
S113163030E040E251E40E94CC05B394F6CFA70118
S113164096010E945B056B017C010E9445064B01DB
S11316505C012AE0AB01BC01C8010E94DA09C80F91
S1131660D91F7720B9F1C501B4010E9474069B010A
S1131670AC01C701B6010E945A056B017C016EE200
S1131680C8010E94BD09C80FD91F20E030E040E224
S113169051E4C701B6010E942B074B015C010E9473
S11316A045066B017C014AE050E0C8010E94370AFC
S11316B0C80FD91FB60180E090E00E9474069B0118
S11316C0AC01C501B4010E945A056B017C017A94F6
S11316D07110DBCFCE01DF91CF911F910F91FF905D
S11316E0EF90DF90CF90BF90AF909F908F907F90BE
S11316F008950C949E0A0F931F93CF93DF93EC01EC
S11317000E949E0A8C01CE010E94C409800F911F81
S1131710DF91CF911F910F9108951F920F920FB6F1
S11317200F9211242F933F938F939F93AF93BF9363
S11317308091660390916703A0916803B091690357
S11317403091650323E0230F2D3720F40196A11D6A
S1131750B11D05C026E8230F0296A11DB11D2093DB
S113176065038093660390936703A0936803B09323
S1131770690380916A0390916B03A0916C03B0910B
S11317806D030196A11DB11D80936A0390936B03B1
S1131790A0936C03B0936D03BF91AF919F918F9110
S11317A03F912F910F900FBE0F901F9018952FB758
S11317B0F894609166037091670380916803909137
S11317C069032FBF08953FB7F89480916A039091FD
S11317D06B03A0916C03B0916D0326B5A89B05C063
S11317E02F3F19F00196A11DB11D3FBFBA2FA92F9C
S11317F0982F8827820F911DA11DB11DBC01CD0119
S113180042E0660F771F881F991F4A95D1F7089504
S11318108F929F92AF92BF92CF92DF92EF92FF92FC
S11318206B017C010E94E30B4B015C01C114D104E8
S1131830E104F10401F10E9464130E94E30BDC0152
S1131840CB0188199909AA09BB09883E9340A105CF
S1131850B10560F321E0C21AD108E108F10888EE6D
S1131860880E83E0981EA11CB11CC114D104E104AC
S1131870F10419F7DBCFFF90EF90DF90CF90BF908A
S1131880AF909F908F9008958230910538F0880F23
S1131890991F880F991F05970197F1F70895789478
S11318A084B5826084BD84B5816084BD85B5826061
S11318B085BD85B5816085BDEEE6F0E080818160FF
S11318C08083E1E8F0E010828081826080838081FF
S11318D081608083E0E8F0E0808181608083E1EBD7
S11318E0F0E0808184608083E0EBF0E080818160BF
S11318F08083EAE7F0E08081846080838081826075
S1131900808380818160808380818068808310925D
S1131910C10008958E3008F08E502091120190E499
S1131920299F900111248770822B80937C008091E1
S11319307A00806480937A0080917A0086FDFCCFDF
S1131940809178002091790090E0922B0895833063
S113195081F028F4813099F08230A1F00895873025
S1131960A9F08830B9F08430D1F4809180008F7D63
S113197003C0809180008F7780938000089584B5A0
S11319808F7702C084B58F7D84BD08958091B000A7
S11319908F7703C08091B0008F7D8093B00008954D
S11319A0CF93DF9390E0FC01E458FF4F2491FC01B6
S11319B0E057FF4F8491882361F190E0880F991FCD
S11319C0FC01E854FF4FC591D491FC01E255FF4F4F
S11319D0A591B491611109C09FB7F89488812095AD
S11319E082238883EC912E230BC0623061F49FB76D
S11319F0F8948881322F309583238883EC912E2BA1
S1131A002C939FBF06C08FB7F894E8812E2B2883B0
S1131A108FBFDF91CF9108951F93CF93DF93282F2A
S1131A2030E0F901E859FF4F8491F901E458FF4F80
S1131A30D491F901E057FF4FC491CC23C1F0162F84
S1131A4081110E94A70CEC2FF0E0EE0FFF1FE2556E
S1131A50FF4FA591B4919FB7F894111104C08C91D4
S1131A60D095D82302C0EC91DE2BDC939FBFDF918D
S1131A70CF911F910895FB018081883261F028F491
S1131A80803149F0823229F406C08B3321F082344C
S1131A9011F080E0089581E00895FC017783668366
S1131AA014821582108289E0818381E0828383839A
S1131AB00895CF93DF93EC010E944D0D1B8A1A8A7F
S1131AC0DF91CF910895FC0184810895CF93DF9332
S1131AD0EB0167E0CE010E94251391E02F812813CA
S1131AE090E0892FDF91CF910895EF92FF920F93A9
S1131AF01F93CF93DF938C017B01D42FFC0186814C
S1131B0097810E946F12C0E041E0B701F80186811D
S1131B1097810E949E12882359F0DC1306C0B701F6
S1131B20C8010E94660D811104C0CF5FDC1760F705
S1131B3080E0DF91CF911F910F91FF90EF90089576
S1131B40EF92FF920F931F93CF93DF938C01EB01DE
S1131B507A01FC01868197810E945F11882311F12B
S1131B60BE01F801868197810E944C1240E06EEB21
S1131B70F801868197810E94FC11E701F9E0EF0EDC
S1131B80F11CF801868197810E9430128993CE1549
S1131B90DF05B9F7F801868197810E945F1191E012
S1131BA0813009F090E0892FDF91CF911F910F913F
S1131BB0FF90EF900895CF93DF93EA010E94A00D68
S1131BC0882339F068E0CE010E94251391E028852E
S1131BD0281390E0892FDF91CF9108950F931F93DD
S1131BE0CF93DF93EC018B018E819F810E945F1163
S1131BF0B8018E819F810E944C1240E064EB8E817B
S1131C009F810E94FC118E819F810E94D111182F07
S1131C108E819F810E945F1181E0111180E0DF912C
S1131C20CF911F910F910895CF93DF93CDB7DEB776
S1131C3029970FB6F894DEBF0FBECDBFFB012081FC
S1131C402031D1F0AE014F5F5F4F0E94DB0D88233E
S1131C5089F08D818F3361F020F48F3159F489E05C
S1131C600CC08F3519F08F3739F004C08BE005C0F4
S1131C708AE003C080E001C08CE029960FB6F89496
S1131C80DEBF0FBECDBFDF91CF910895FF920F93BA
S1131C901F93CF93DF93CDB7DEB728970FB6F89491
S1131CA0DEBF0FBECDBF8C01FC01868197810E94EF
S1131CB06F12F8011482158241E0BE016F5F7F4FFD
S1131CC0F801868197810E949E128823E9F1BE0162
S1131CD06F5F7F4FC8010E94660D882369F3F80186
S1131CE08081811108C0BE016F5F7F4FC8010E94CF
S1131CF0EE0D811125C0F801F180BE016F5F7F4FA9
S1131D00C8010E94140E8F1518F4F801818106C0D1
S1131D10BE016F5F7F4FC8010E94140EF8018183DA
S1131D2084818F5F8483BE016F5F7F4FC8010E94EF
S1131D303B0D882309F2F80185818F5F8583BCCF31
S1131D4081E0F8018083D7CF28960FB6F894DEBFE0
S1131D500FBECDBFDF91CF911F910F91FF900895DA
S1131D60FC01868197810E94D11191E0813009F0B4
S1131D7090E0892F08958F929F92AF92BF92CF9255
S1131D80DF92EF92FF920F931F93CF93DF93EC01B7
S1131D906950633048F4E62FF0E0EE0FFF1FED5971
S1131DA0FD4F0081118102C00EEE12E08B81882369
S1131DB0F1F0888181111BC00E94D70B4B015C019B
S1131DC06801110FEE08FF08CE010E94B00E8111C8
S1131DD020C00E94D70BDC01CB018C199D09AE09F0
S1131DE0BF0988159905AA05BB0570F312C0B8018F
S1131DF0110F880B990BDF91CF911F910F91FF90D9
S1131E00EF90DF90CF90BF90AF909F908F900C9405
S1131E10080CDF91CF911F910F91FF90EF90DF900D
S1131E20CF90BF90AF909F908F900895CF93DF9302
S1131E30EC018E819F810E945F118E819F810E949F
S1131E406B12488164E48E819F810E94FC118A8117
S1131E50882331F06981CE01DF91CF910C94BB0EC0
S1131E60DF91CF910895FA01218130E0C901982FC3
S1131E708827990F990F990F208148E0249F90019A
S1131E801124282B392BDB018C918031C1F467811B
S1131E9070E08681AB01481B5109CA019695982FC1
S1131EA08827979587950E946A1360517109207F4E
S1131EB053E0220F331F5A95E1F7260F371FC9014C
S1131EC00895EF92FF920F931F93CF93DF93CDB7B3
S1131ED0DEB729970FB6F894DEBF0FBECDBF8C01D5
S1131EE07B01AE014F5F5F4F0E94DB0D882341F001
S1131EF0AE014F5F5F4FB701C8010E94330F02C0AC
S1131F0080E894EE29960FB6F894DEBF0FBECDBFDD
S1131F10DF91CF911F910F91FF90EF9008950E9450
S1131F20610F813824EE92076CF0BC01990F880B85
S1131F30990B0E94760620E030E040E05CE30E94CA
S1131F402B07089560E070E08EEF92EC0895CF9334
S1131F50DF93EC0160E08E810E940C0D81E090E043
S1131F600E94440C61E08E810E940C0D81E090E09F
S1131F700E94440C60E08E810E940C0D84E690E087
S1131F80DF91CF910C94440CCF92DF92EF92FF92A9
S1131F900F931F93CF93DF936C017C0187E0E80ECE
S1131FA0F11CC0E0D0E0062F10E0B8010C2E02C0F6
S1131FB0759567950A94E2F76170F70181917F0145
S1131FC00E940C0D2196C430D10579F7C601DF912A
S1131FD0CF911F910F91FF90EF90DF90CF900C94D1
S1131FE0A70FCF92DF92EF92FF920F931F93CF939D
S1131FF0DF936C017C0187E0E80EF11CC0E0D0E0C7
S1132000062F10E0B8010C2E02C0759567950A944E
S1132010E2F76170F70181917F010E940C0D219616
S1132020C830D10579F7C601DF91CF911F910F9187
S1132030FF90EF90DF90CF900C94A70F1F93CF9356
S1132040DF93EC01162F642F8C810E940C0D8D817F
S11320508F3F19F060E00E940C0D8F85612F84FF83
S113206006C0CE01DF91CF911F910C94F10F70E067
S113207084E0759567958A95E1F7CE010E94C40FB7
S1132080612FCE01DF91CF911F910C94C40F40E0DA
S11320900C941E1061E00E94471080ED97E00C94B0
S11320A0440CFC01443008F043E08389481710F0E5
S11320B04FEF480FDF01A40FB11D54969C91690F97
S11320C06068CF010C944710FC016089262F2460BE
S11320D0208B6C600C944710EF92FF920F931F9328
S11320E0CF93DF93EC01423018F08F8588608F879F
S11320F04B8B1C8A80E48D8B6E8B70E0605C7F4F11
S11321006F8B222329F0413019F48F8584608F87E7
S113211061E08C810E94D00C8D818F3F19F061E0C9
S11321200E94D00C61E08E810E94D00C7E0187E079
S1132130E80EF11C00E010E08F8584FD03C084E00C
S113214090E002C088E090E0081719074CF461E0C1
S1132150F70181917F010E94D00C0F5F1F4FECCFDC
S113216080E593EC0E94440C60E08C810E940C0D8D
S113217060E08E810E940C0D8D818F3F19F060E02C
S11321800E940C0D6F8564FD1DC063E0CE010E94AA
S1132190C40F84E991E10E94440C63E0CE010E94E3
S11321A0C40F84E991E10E94440C63E0CE010E94D3
S11321B0C40F86E990E00E94440C62E0CE010E94C4
S11321C0C40F16C06062CE010E94471084E991E1F9
S11321D00E94440C6F856062CE010E94471086E91C
S11321E090E00E94440C6F856062CE010E9447100B
S11321F06F856062CE010E94471084E0888BCE0117
S11322000E946410CE010E944A1082E0898B66E02D
S1132210CE01DF91CF911F910F91FF90EF900C941D
S11322204710CF92EF920F93FC01138212828DE636
S113223092E09183808364838FEF85834683278331
S11322400087E186C286138614861586168617864D
S113225020E041E060E1CF010F91EF90CF900C942A
S11322606C10EF92FF920F931F93CF93DF938C0127
S11322707A01677088E0689FB00111246064C80126
S11322800E944710E701A8E0EA0EF11C6991D80109
S1132290ED91FC910190F081E02DC8010995CE15D6
S11322A0DF05A1F7DF91CF911F910F91FF90EF9080
S11322B0089541E00E941E1081E090E00895FF928D
S11322C00F931F93CF93DF93FC01F080C181D281E0
S11322D0F89489810F2D00958023898378941DE7D4
S11322E0115029F182E090E00E94440C88818F21F2
S11322F0B9F3F8948A8180238A8389818F29898319
S1132300789480EE91E00E94440CF894898108232B
S1132310098386E490E00E94440C8881F82211E04D
S113232009F010E078948AE991E00E94440C812F2E
S1132330DF91CF911F910F91FF9008951F93CF9339
S1132340DF93FC011081C181D281812F809560FFD0
S113235012C0F8949A8189238A838981812B898385
S11323608AE090E00E94440C8A81182B1A837894A6
S113237087E390E011C0F8949A8189238A83898144
S1132380812B898381E490E00E94440C8A81182B7C
S11323901A83789485E090E0DF91CF911F910C949B
S11323A0440C0F931F93CF93DF93FC010081C181F1
S11323B0D281F8948981802B89838A81102F10958A
S11323C081238A8383E090E00E94440C898118234E
S11323D019838AE090E00E94440CC881789485E3D4
S11323E090E00E94440CC02381E009F480E0DF9176
S11323F0CF911F910F910895DF92EF92FF920F9367
S11324001F93CF93DF93EC01D62EE42E08E010E067
S1132410FF24F39461E08D2D8F2109F460E0CE0157
S11324200E949E11FF0C01501109A1F7E11010C088
S1132430F894E981FA819181888180958923818347
S1132440E981FA81928188818095892382837894B5
S1132450DF91CF911F910F91FF90EF90DF9008953E
S1132460EF92FF920F931F93CF93DF937C0108E0C9
S113247010E0C0E0D1E0C7010E94D1118111CD2B41
S1132480DD0F01501109B9F78C2FDF91CF911F9106
S11324900F91FF90EF900895EF92FF920F931F9387
S11324A0CF93DF938C017B0140E065E50E94FC1132
S11324B0E70188E0E80EF11C699140E0C8010E9440
S11324C0FC11CE15DF05C1F7DF91CF911F910F915C
S11324D0FF90EF90089540E06CEC0C94FC11FC012B
S11324E0138615861486DC011B9633961E92AE174E
S11324F0BF07E1F708951F93CF93DF93EC01162FE5
S113250060E0812F0E94D00C612F70E0FB01E45841
S1132510FF4FE491E883FB01E057FF4FE491F0E0C3
S1132520EE0FFF1FEC55FF4F859194919A83898399
S1132530CE01DF91CF911F910C946F12BF92CF9275
S1132540DF92EF92FF920F931F93CF93DF93EC01EF
S11325506B01142F8D85811105C0CE010E945F117E
S1132560811105C01B861D861C8680E064C040E086
S1132570112311F060EF01C06CEECE010E94FC113A
S113258001E0E12CB12C11E0CE010E94D111F82E12
S1132590CE010E94D11191E0F91203C08130B1F44F
S11325A034C02E2D30E0F8121BC08B85181738F478
S11325B0FE01E20FF31F8381802341F402C0181748
S11325C029F0F12C193058F41C8709C0FE01EE0DD6
S11325D0F11D8381802B8383FF24F39409C0B12EE2
S11325E0FE01E20FF31F9381802F8095892383835B
S11325F06F2DCE010E949E111F5F000F11F4E39412
S113260001E087E08E1508F0BFCF113408F4AACF9B
S1132610BB86B11002C081E08D878B81882309F4C9
S1132620A1CFDE011396F6012B968D918193CA17E3
S1132630DB07D9F781E0DF91CF911F910F91FF90D4
S1132640EF90DF90CF90BF900895DC0180E061505F
S113265098F02D91982F9227E92FEF70F0E0EE5328
S1132660FF4F249192959F70E92FF0E0EE52FF4FB7
S1132670E491822F8E27EBCF08951F920F920FB60D
S11326800F9211242F933F934F935F936F937F93F4
S11326908F939F93AF93BF93EF93FF93E0916E0358
S11326A0F0916F030995FF91EF91BF91AF919F91C5
S11326B08F917F916F915F914F913F912F910F90E7
S11326C00FBE0F901F90189508950E94B106880BB5
S11326D0990B089597FB072E16F4009407D077FD05
S11326E009D00E94A01307FC05D03EF49095819573
S11326F09F4F0895709561957F4F0895A1E21A2E1A
S1132700AA1BBB1BFD010DC0AA1FBB1FEE1FFF1F91
S1132710A217B307E407F50720F0A21BB30BE40BE1
S1132720F50B661F771F881F991F1A9469F7609528
S11327307095809590959B01AC01BD01CF010895E2
S1132740AA1BBB1B51E107C0AA1FBB1FA617B707D3
S113275010F0A61BB70B881F991F5A95A9F78095EF
S11327609095BC01CD010895EE0FFF1F0590F491E3
S10B2770E02D0994F894FFCF59
S11327780500640A0C12120C000000000000A041BD
S113278864000130004D656E757320646F20436FDB
S113279877626F792000202020202020202020200C
S11327A82020202020200053656C65632E200043E0
S11327B8206D61782E20200053656C65632E2025DA
S11327C82073616964612020004D6F6E69746F72B3
S11327D8616D656E746F20202000416A757374659D
S11327E8202520736169646100253A20002500547E
S11327F8656D702E3A2020202020202020202000E3
S11328084D61783A202020202020202020202020DC
S1132818004171756563656E646F3A20202020203D
S113282820004300436F6E742E20646F20436F773B
S1132838626F79004C6F63616C697A616E646F20B2
S113284873656E736F726573204453313842323046
S11328582E2E2E00466F72616D20656E636F6E7446
S11328687261646F7320002073656E736F72657391
S11328782E004E656E68756D2073656E736F7220D9
S113288864657465637461646F2100456E64657280
S113289865636F2073656E736F723A2000416A75C1
S11328A8737465200043206D6178696D6F00433A45
S11328B820000000000005087C09C6075208980794
S11328C8B207A4070D0A006E616E00696E66006F98
S11328D87666005E00BC0077010000000059117C98
S10928E809D908DC080018
S9030000FC
